:10000000B5C0E0C09BC1DEC086C1DCC0DBC0DAC0C9
:10001000DAC0D8C0D7C069CAD5C0D4C0D3C0D2C096
:10002000D1C023C582C5B8C5F4C610C6B9C6B7C706
:10003000D5C705C81BC8005EBCE2613FDD83C29C1A
:100040007E20A3FD1F419DC3217FFCA2401E5F01B6
:10005000E3BD3E6082DC237D9FC1421CFEA0E1BF68
:100060005D0380DE3C62BEE0025CDF81633D7C229A
:10007000C09E1D43A1FF4618FAA427799BC584DAC8
:100080003866E5BB5907DB856739BAE40658194776
:10009000A5FB7826C49A653BD987045AB8E6A7F928
:1000A0001B45C6987A24F8A6441A99C7257B3A645A
:1000B00086D85B05E7B98CD2306EEDB3510F4E1088
:1000C000F2AC2F7193CD114FADF3702ECC92D38D36
:1000D0006F31B2EC0E50AFF1134DCE90722C6D33E8
:1000E000D18F0C52B0EE326C8ED0530DEFB1F0AE1A
:1000F0004C1291CF2D73CA947628ABF51749085648
:10010000B4EA6937D58B5709EBB536688AD495CBF5
:100110002977F4AA4816E9B7550B88D6346A2B75A7
:1001200097C94A14F6A8742AC896154BA9F7B6E8D9
:100130000A54D7896B3500003A00370000003B00B5
:100140003800000039003600010101010101010100
:100150000202020102040810204080040201000093
:10016000000000040302010000008A0811241FBEE1
:10017000CFE5D2E0DEBFCDBF14BE88E10FB6F89464
:1001800081BD11BC0FBE11E0A0E6B0E0E0E0FDE1F2
:1001900002C005900D92A433B107D9F711E0A4E392
:1001A000B1E001C01D92AC37B107E1F711E0CCE638
:1001B000D1E003C02297FE0187DDCA36D107D1F70F
:1001C000F8DA9CCD1DCF1F920F920FB60F9211241B
:1001D0002F933F934F935F936F937F938F939F934F
:1001E000AF93BF93EF93FF9387ED9FEF9DBD8CBDC2
:1001F000E0917101F0917201EB54FF4F808160E05A
:10020000A1DA80917101909172010196909372012F
:10021000809371018830910521F41092720110923F
:100220007101809171019091720187309105ECF418
:100230008B549F4FFC018081E0919400F0E0EF77B8
:10024000F070EE0FFF1FE358FF4F21E030E0082E63
:1002500002C0220F331F0A94E2F740815181242308
:1002600035232115310579F00CC02091940027FD2C
:1002700004C0209194002E3231F48B549F4FFC0126
:10028000808161E05FDA80919300823051F08330A9
:1002900018F4882361F12EC0833079F0843051F551
:1002A00018C077D920EA3FE040E050E0D5DC643662
:1002B000710581059105D8F417C06BD924EF31E0A1
:1002C00040E050E0C9DC663971058105910578F49C
:1002D0000BC05FD92AEF30E040E050E0BDDC623374
:1002E00071058105910518F482E061E002C082E0A9
:1002F00060E028DAFF91EF91BF91AF919F918F91CC
:100300007F916F915F914F913F912F910F900FBE11
:100310000F901F9018951F920F920FB60F921124F5
:100320008F9380916F01882319F081B5806481BD1E
:100330008F910F900FBE0F901F9018951F920F92E4
:100340000FB60F9211248F9381E0809370018F91EB
:100350000F900FBE0F901F9018951FBC83E08EBDAD
:1003600012BC81E08CB987E39FEF9DBD8CBD0895E1
:10037000AF92BF92CF92DF92EF92FF920F931F93B3
:100380007C0107D95B016C010027F7FC0095102F59
:100390000AC085B7877E85BF85B7806285BF88958F
:1003A00085B78F7D85BFF5D86A197B098C099D09B2
:1003B0006E157F058007910760F31F910F91FF90E5
:1003C000EF90DF90CF90BF90AF9008951F93CF93A1
:1003D000DF93C82FD92F10E20AC08093940080E2E7
:1003E00093E0C6DF109394008CE291E0C1DF899125
:1003F000882399F7DF91CF911F910895EF92FF9293
:100400000F931F93DF93CF9300D0CDB7DEB71A823F
:100410007E010894E11CF11CC8018F5F9F4F0F5FA4
:100420001F4F56DC8983882311F0C701CFDF8981F4
:10043000882391F70F900F90CF91DF911F910F912B
:10044000FF90EF9008952F923F924F925F926F929C
:100450007F928F929F92AF92BF92CF92DF92EF9254
:10046000FF920F931F93DF93CF93CDB7DEB72E97F5
:100470000FB6F894DEBF0FBECDBF6B877C878D872C
:100480009E87A42E20E030E040E251E455DBB62EFA
:10049000C72EE82E092F20E030E0A90149DB87FDB7
:1004A0000AC06B2D7C2D8E2D902F20E030E040E097
:1004B0005FE38BD909C06B2D7C2D8E2D902F20E012
:1004C00030E040E05FE380D950DA7B0177FF09C07C
:1004D0008DE28983F094E194F108F39401E010E057
:1004E00002C000E010E021E7E21627E1F20684F402
:1004F00044E0842E912C38EEC32E33E0D32EBB245F
:100500003E010894611C711C2AE0222E312C11C07E
:100510001982809158019091590101969093590147
:100520008093580189E090E090935B0180935A0199
:1005300053C0C701B6017DDB2B011616170634F434
:10054000F301E00FF11F862F805D1AC0BB20A1F4DC
:100550008AE0C816D10481F0AA2021F524E6C2164B
:10056000D10401F56B857C858D859E8520E030E08A
:10057000A901DEDA1816B4F4F301E00FF11F80E3ED
:100580008083C80101962AE0C216D10441F4AA2052
:1005900031F0F301E00FF11F2081206820838C01EE
:1005A000BB24B394C601B10144DB9B01AA2019F41A
:1005B0006130710569F008948108910881149104F3
:1005C00039F0C201B60123DBE81AF90A6901B1CF9B
:1005D000FE01E00FF11F1182CE010196F7DE2E968B
:1005E0000FB6F894DEBF0FBECDBFCF91DF911F9144
:1005F0000F91FF90EF90DF90CF90BF90AF909F90C2
:100600008F907F906F905F904F903F902F900895C4
:100610000F931F93DF93CF9300D0CDB7DEB78C013C
:1006200080E090E069837A8353DB69817A81882353
:1006300069F4802F912F26E636E646EE5FE37CDAFA
:1006400020E030E040E052E4C0D801C0C80141E001
:10065000FADE80E090E03CDB882319F480E690E04D
:1006600002C083E690E0B2DE0F900F90CF91DF9151
:100670001F910F9108958BB780618BBF909A089559
:100680008BB78F7E8BBF08951F93CF93DF93C5EBFE
:10069000D0E01991812F61E017D8812F60E052D806
:1006A00080E0CD3BD807A9F782E061E00DD882E079
:1006B00060E048D8DF91CF911F910895CF93DF93E9
:1006C00010929300C5EBD0E0899160E03BD880E0C8
:1006D000CD3BD807C9F782E060E034D83798DF9186
:1006E000CF910895D1DF39DEC6DF089584E391E02C
:1006F0006EE471E064D6882319F481E090E00AC0CA
:100700008EE491E067E0E4D690915501891769F095
:1007100082E090E090935B0180935A0189E090E041
:100720009093920080939100089580914E018031C2
:1007300061F083E090E090935B0180935A0189E03F
:1007400090E090939200809391000895CF92DF9271
:10075000EF92FF920F931F93CF93DF93379A81E22B
:1007600087B964E670E080E090E048D7369A369921
:10077000FECF64B170E025B1922F80E0682B792B19
:10078000882777FD8095982F23D99B01AC016DECCC
:100790007CEC8CE894E481D88B01D82FC92F9E0182
:1007A000712F832F922F20E030E040E950E4C0D930
:1007B0001816F4F49E01602F712F832F922F20E0E2
:1007C00030E040E950E400D82BE734E14EE25EE34C
:1007D000B3D96B017C01CE01202F312F492F582F27
:1007E000CA01B9012C2D3D2D4E2D5F2DEDD71DC019
:1007F00060E070E080E990E4FE01202F312F4F2F60
:100800005E2FE2D72DEC3CEC4CE45DE395D96B0117
:100810007C01CE01202F312F492F582FCA01B90159
:100820002C2D3D2D4E2D5F2DD0D7379820E030E078
:10083000A901CBD7DF91CF911F910F91FF90EF903E
:10084000DF90CF900895CF93DF9384E391E067D456
:1008500084E391E06EE471E057D584E391E064E4D1
:1008600041E0F6D488EE93E083DD84E391E057D451
:10087000882309F441C084E391E06EE471E044D53B
:1008800084E391E06EEB40E0E3D4C2E4D1E084E3A2
:1008900091E01FD5899381E0CB34D807C1F7CE0111
:1008A000099768E015D690914A01891749F590910A
:1008B000430180E06091420170E0682B792B53E0A6
:1008C000660F771F5A95E1F780914901803149F40D
:1008D000209148018CE090E0821B9109607F680FB5
:1008E000791F882777FD8095982F72D820E030E017
:1008F00040E85DE321D908C060E070E08CEF03C000
:1009000060E070E08EEF92ECDF91CF910895FF925E
:100910000F931F93CF93DF93E5DEE8DE81E08093B2
:10092000930081E090E0D4D98F3FC1F482E061E090
:1009300009D705E910E0C0E0D0E0F801F1908F019F
:10094000CE018F5F9F4F6F2DCBD92196FF20A9F746
:1009500080EA9FE00DDD82E060E0F4D61092930023
:100960003798DF91CF911F910F91FF900895AF922B
:10097000BF92CF92DF92EF92FF920F931F93DF937C
:10098000CF93CDB7DEB729970FB6F894DEBF0FBE71
:10099000CDBFDE011196EEE7F0E089E001900D9207
:1009A0008150E1F780915C0190915D01A0915E0121
:1009B000B0915F018093600190936101A093620107
:1009C000B0936301E6D57B018C0160935C01709369
:1009D0005D0180935E0190935F0180916001909131
:1009E0006101A0916201B09163010097A105B10579
:1009F00029F0E81AF90A0A0B1B0B03C0EE24FF24A6
:100A0000870180915801909159018530910534F00A
:100A100089E090E09093920080939100BAD5613084
:100A20002FE9720724E2820720E0920798F0809174
:100A3000910090919200009769F08130910551F0FA
:100A40008AE090E090936E0180936D011092920085
:100A500010929100E0919100F0919200EA30F1053E
:100A600008F031C3EF5EFF4F099482E061E06AD67F
:100A700082E390E07DDC6ADE609368017093690137
:100A800080936A0190936B0182E060E05BD688E11D
:100A90000FB6F89481BD11BC0FBE86E690E096DCDF
:100AA000609168017091690180916A0190916B0178
:100AB00041E0C9DC80E293E05BDC8CE690E086DC20
:100AC00080E496E055DC81E790E080DC1CB8D8DD5E
:100AD000F5DD81E080936F0129E288E190E00FB6B7
:100AE000F894A89581BD0FBE21BD81B5806481BDFC
:100AF00080916D0190916E010CC025B7277E206119
:100B000025BF25B7206225BF889525B72F7D25BF36
:100B10000897181619068CF388E10FB6F89481BD72
:100B200011BC0FBE10926F015EC088E10FB6F89441
:100B300081BD11BC0FBE1CB8C1DD9DDD84EF91E00D
:100B400017DC1092700185B7877E806185BF85B7FD
:100B5000806285BF889585B78F7D85BF81B58F7B86
:100B600081BD28E088E190E00FB6F894A89581BD9A
:100B70000FBE21BD64E670E080E090E03FD589E0E3
:100B800090E0909392008093910084E090E09093A5
:100B90005B0180935A01ADC281E080939300809104
:100BA000640190916501A0916601B09167018E0D7D
:100BB0009F1DA01FB11F8093640190936501A093B6
:100BC0006601B093670181322EE4920720E0A2070C
:100BD00020E0B20778F01092640110926501109243
:100BE00066011092670181E090E0909392008093FB
:100BF00091007FC280918F00909190008430910588
:100C00005CF01092640110926501109266011092DE
:100C1000670184E090E0E9CF20917001222399F0F0
:100C200001969093900080938F0082E061E08AD5D6
:100C300082E390E09DDB1092700182E060E082D55B
:100C400084E690E095DB82E390E0A7C182E061E07A
:100C500079D582E390E08CDB79DD60936801709355
:100C6000690180936A0190936B0182E060E06AD52C
:100C7000609168017091690180916A0190916B01A6
:100C800020E030E040E251E457D7162FA72EC82EBF
:100C9000E92E01E020E030E0A9014AD787FF0BC030
:100CA00000E0612F7A2D8C2D9E2D20E030E040E079
:100CB0005FE38AD509C0612F7A2D8C2D9E2D20E00F
:100CC00030E040E05FE381D550D682D620E030E0CE
:100CD00040E251E4E2D526E636E646E250E4D9D5D4
:100CE00087FF07C085E090E0909392008093910089
:100CF0002CC083E090E090939200809391000023B9
:100D000051F0612F7A2D8C2D9E2D20E030E040E0B7
:100D10005FE35BD509C0612F7A2D8C2D9E2D20E0DD
:100D200030E040E05FE350D520D652D620E030E0FE
:100D300040E251E4B2D52AE939E949E350E4A9D5C2
:100D4000881F8827881F80936C017DDD7B018C01C3
:100D500020918700309188004091890050918A004D
:100D600033D520E030E040E251E4E2D618167CF4BE
:100D7000C801B70120E030E040E251E425D560939E
:100D80008700709388008093890090938A00109266
:100D90006401109265011092660110926701A9C169
:100DA00084E0809393008091640190916501A0910B
:100DB0006601B09167018E0D9F1DA01FB11F80932A
:100DC000640190936501A0936601B093670185E784
:100DD00090E0FCDA80E496E0CBDA809164019091B7
:100DE0006501A0916601B0916701813325E7920703
:100DF00020E0A20720E0B20708F47BC18AE090E07F
:100E000090936E0180936D01109292001092910068
:100E100070C1109293008091640190916501A0913E
:100E20006601B09167018E0D9F1DA01FB11F8093B9
:100E3000640190936501A0936601B093670103DD9F
:100E40007B018C0120E030E04EEF52EC22D588236C
:100E500049F0C801B70120E030E04CEF52EC19D561
:100E6000882369F5C0905801D09059010894C11C9D
:100E7000D11CD0925901C092580185E090E0909326
:100E80005B0180935A01C801B70120E030E04CEFCC
:100E900052ECFFD4882331F486E090E090935B011C
:100EA00080935A01E0908B00F0908C0000918D00AF
:100EB00010918E0085E0C816D1040CF00AC1C8015B
:100EC000B701A6DB6091870070918800809189004E
:100ED00090918A0020E030E0A90177D49B01AC0119
:100EE000C801B701D6D418167CF087E090E0909343
:100EF000920080939100109264011092650110920B
:100F00006601109267013DC0A0908B00B0908C00EC
:100F1000C0908D00D0908E00C601B501A801970148
:100F200007D618162CF080917001882309F4D4C0DC
:100F30001092700110926401109265011092660186
:100F400010926701E0928B00F0928C0000938D006C
:100F500010938E0016C08091640190916501A0915C
:100F60006601B0916701813829EA920723E0A20760
:100F700020E0B20730F086E090E0909392008093FA
:100F8000910080916C01882331F080E293E0F0D9E8
:100F900085E790E01BDA80E496E0EAD9AAC083E016
:100FA0008093930086E690E011DA60916801709179
:100FB000690180916A0190916B0141E044DA80E21D
:100FC00093E0D6D98CE690E001DA1092930080E4A9
:100FD00096E0CED981E790E0F9D905CE83E0809301
:100FE000930031DC7B018C0120E030E04CEF52ECCF
:100FF00050D4882349F0C801B70120E030E04EEF1B
:1010000052EC47D4882341F4E0908B00F0908C00A0
:1010100000918D0010918E00C801B701F9DA80911E
:101020005601909157010196909357018093560174
:10103000833091050CF45DC088E090E0D6CD84E06B
:101040008093930080ED97E093D9D8D9D7D9D6D99A
:10105000D5D9D4D9D3D9109292001092910088E2B8
:1010600090E090936E0180936D0143C088E10FB6CC
:10107000F89481BD11BC0FBE1092930001DB04DB1C
:1010800080E28093940069D980915A01805D8E83BB
:1010900006E010E07E010894E11CF11CC70196D91E
:1010A00088EE93E065D901501040C1F7109292008C
:1010B0001092910010925B0110925A011092590106
:1010C0001092580116C087E090E090935B018093E6
:1010D0005A0189E090E089CDC601B50120E030E0F9
:1010E00040E85FE372D3A8019701D3D387FD2ACFED
:1010F00032CF29960FB6F894DEBF0FBECDBFCF9189
:10110000DF911F910F91FF90EF90DF90CF90BF90F4
:10111000AF90089584E391E061E02FD108950F939B
:101120001F93CF93DF93FC011081C181D281F8948A
:101130008981012F00958023898378948DE78150E0
:1011400001F1000098819123D1F3F8948A818023E2
:101150008A838981812B898378948EE390E073D28E
:10116000F8948981802389838AE090E06CD2888119
:101170008123C1E009F0C0E0789484E390E063D279
:1011800001C0C0E08C2FDF91CF911F910F91089586
:101190001F93CF93DF93FC011081C181D281912FE6
:1011A000909560FF16C0F8948A8189238A8389818B
:1011B000812B898300000000000000000000000077
:1011C00000008A81812B8A83789486E090E03BD26C
:1011D00012C0F8948A8189238A838981812B89832B
:1011E00088E090E030D28A81812B8A837894000055
:1011F000000000000000DF91CF911F910895CF9370
:10120000DF93FC01C0810180F281E02DF89481819F
:101210008C2B818382819C2F90958923828300006F
:10122000000081818923818300000000000000000C
:101230000000000000000000D081789486E090E07B
:1012400002D2CD2381E009F480E0DF91CF910895AF
:10125000CF92DF92EF92FF920F931F93DF93CF9382
:101260000F92CDB7DEB76C01F62E08E010E0EE2449
:10127000E3948E2D8F2161E009F460E0C60149837B
:1012800087DFEE0C0150104049810115110589F7E7
:101290004423A9F4F894D6011196ED91FC9112978C
:1012A00081819C919095892381831196ED91FC9188
:1012B000129782819C9190958923828378940F90D4
:1012C000CF91DF911F910F91FF90EF90DF90CF9022
:1012D0000895EF92FF920F931F93CF93DF938C01AA
:1012E000C8E0D0E0FF24EE24E394C80188DF811138
:1012F000FE28EE0C2197C9F78F2DDF91CF911F911A
:101300000F91FF90EF900895CF92DF92EF92FF92AE
:101310000F931F93DF93CF930F92CDB7DEB77C016E
:10132000062F65E540E0798393DF7981172FCC2480
:10133000DD24F80161918F01C70140E089DF089445
:10134000C11CD11CF8E0CF16D10499F70F90CF91B2
:10135000DF911F910F91FF90EF90DF90CF90089554
:10136000FC01138615861486128611861086178254
:10137000168215821482138208951F93CF93DF93F0
:10138000EC01162F862F60E09FD1612F70E0FB01EA
:10139000ED5AFE4FE491E883FB01E85BFE4FE491D8
:1013A000F0E0EE0FFF1FEE5BFE4F85919491898375
:1013B0009A83CE01D5DFDF91CF911F910895BF921F
:1013C000CF92DF92EF92FF920F931F93CF93DF9311
:1013D000EC01162F072F8D85882309F057C0CE0109
:1013E0009EDE882321F41B861D861C8660C0CE01EC
:1013F00060EF40E02DDFEE24E394DD24CC24FF24D5
:10140000F394CE01FCDEB82ECE01F9DE9B2D913097
:1014100019F48130B1F431C0B816D9F48B85F816BF
:1014200038F4FE01ED0DF11D83818E2151F402C0CF
:10143000F81639F060E08F2D893008F042C0FC8644
:1014400040C0FE01ED0DF11D83818E29838361E093
:1014500009C06B2DFE01ED0DF11D9E2D9095838130
:1014600089238383CE0194DEF394EE0C19F4D39494
:10147000EE24E3949D2D983020F28F2D813430F0AE
:10148000CB86CC2001F581E08D871DC01B861D8693
:101490001C8680E02396212F302FF90120E030E0D8
:1014A000999191932F5F3F4F28303105C9F7DF9114
:1014B000CF911F910F91FF90EF90DF90CF90BF9051
:1014C0000895CF2CC7CF8B81882301F381E0E2CF31
:1014D000DC0180E007C0ED91E827F0E0EA5CFF4F17
:1014E000849161506623B9F708951F920F920FB649
:1014F0000F9211242F933F934F935F936F937F939A
:101500008F939F93AF93BF93209177013091780190
:101510004091790150917A0170917B01DA01C90102
:101520004096A11DB11D672F605D6D3730F06D577E
:10153000DA01C9014196A11DB11D60937B01809321
:10154000770190937801A0937901B0937A0180910B
:10155000730190917401A0917501B091760101968B
:10156000A11DB11D8093730190937401A093750127
:10157000B0937601BF91AF919F918F917F916F91C1
:101580005F914F913F912F910F900FBE0F901F9041
:1015900018958FB7F8942091770130917801409198
:1015A000790150917A018FBFB901CA0108959FB79F
:1015B000F89420917301309174014091750150911C
:1015C000760182B708B600FE06C08F3F21F02F5F7C
:1015D0003F4F4F4F5F4F9FBF542F432F322F222734
:1015E000280F311D411D511D86E0220F331F441F5E
:1015F000551F8A95D1F7B901CA010895EF92FF925C
:101600000F931F93CF93DF937B018C01D0DFEB010E
:101610000EC0CDDF6C1B7D0B83E0683E780738F091
:101620000894E108F10801091109C851DC4FE114DF
:10163000F1040105110569F7DF91CF911F910F9119
:10164000FF90EF900895019739F0019729F0880FE6
:10165000991F01970197F1F70895789480B78260F8
:1016600080BF80B7816080BF83B7826083BF83B74C
:10167000816083BF89B7816089BF1EBC8EB58260DF
:101680008EBD8FB581608FBD329A319A309A379A6C
:1016900008958230A9F0833018F48130A1F40CC091
:1016A000833019F0843079F403C08FB58F7702C08E
:1016B0008FB58F7D8FBD089580B78F7780BF0895D8
:1016C00080B78F7D80BF0895CF93DF9390E0FC01BA
:1016D000ED5AFE4F4491885B9E4FFC018491882314
:1016E00071F190E0880F991FFC01EA5CFE4F259193
:1016F0003491D901845C9E4FFC0125913491C22F15
:10170000D32F662349F49FB7F8948C914095842396
:101710008C93888184230BC0623059F49FB7F8946E
:101720008C91242F209582238C938881842B88830D
:1017300005C09FB7F8948C91842B8C939FBFDF9149
:10174000CF9108950F931F93DF93CF930F92CDB74F
:10175000DEB7282F30E0F901E25AFE4F8491F901FB
:10176000ED5AFE4F1491285B3E4FF901049100237E
:10177000D1F0882319F069838CDF6981E02FF0E0D4
:10178000EE0FFF1FE45CFE4F85919491DC019FB743
:10179000F894662321F48C911095812302C08C91DA
:1017A000812B8C939FBF0F90CF91DF911F910F9151
:1017B0000895CF93DF9351DFAAD8C0E0D0E0D7D807
:1017C0002097E9F31DD4FBCF5058BB27AA270ED092
:1017D00075C166D130F06BD120F031F49F3F11F428
:1017E0001EF45BC10EF4E095E7FB51C1E92F77D100
:1017F00080F3BA17620773078407950718F071F42E
:101800009EF58FC10EF4E0950B2EBA2FA02D0B0183
:10181000B90190010C01CA01A0011124FF27591B35
:1018200099F0593F50F4503E68F11A16F040A22F3B
:10183000232F342F4427585FF3CF469537952795AC
:10184000A795F0405395C9F77EF41F16BA0B620BAB
:10185000730B840BBAF09150A1F0FF0FBB1F661FF2
:10186000771F881FC2F70EC0BA0F621F731F841F35
:1018700048F4879577956795B795F7959E3F08F05B
:10188000B3CF9395880F08F09927EE0F979587951A
:101890000895D9D008F481E008950CD00FC107D184
:1018A00040F0FED030F021F45F3F19F0F0C051114C
:1018B00039C1F3C014D198F39923C9F35523B1F377
:1018C000951B550BBB27AA2762177307840738F0AF
:1018D0009F5F5F4F220F331F441FAA1FA9F333D00E
:1018E0000E2E3AF0E0E830D091505040E695001CC2
:1018F000CAF729D0FE2F27D0660F771F881FBB1F7E
:10190000261737074807AB07B0E809F0BB0B802D57
:10191000BF01FF2793585F4F2AF09E3F510568F0A3
:10192000B6C000C15F3FECF3983EDCF38695779537
:101930006795B795F7959F5FC9F7880F911D9695A5
:10194000879597F90895E1E0660F771F881FBB1F01
:10195000621773078407BA0720F0621B730B840BAE
:10196000BA0BEE1F88F7E095089504D06894B11182
:10197000D9C00895BCD088F09F5790F0B92F99270F
:10198000B751A0F0D1F0660F771F881F991F1AF08A
:10199000BA95C9F712C0B13081F0C3D0B1E0089553
:1019A000C0C0672F782F8827B85F39F0B93FCCF3D4
:1019B000869577956795B395D9F73EF49095809580
:1019C000709561957F4F8F4F9F4F0895E89409C0A0
:1019D00097FB3EF490958095709561957F4F8F4F62
:1019E0009F4F9923A9F0F92F96E9BB279395F69578
:1019F000879577956795B795F111F8CFFAF4BB0FF6
:101A000011F460FF1BC06F5F7F4F8F4F9F4F16C059
:101A1000882311F096E911C0772321F09EE8872FE3
:101A2000762F05C0662371F096E8862F70E060E09F
:101A30002AF09A95660F771F881FDAF7880F969518
:101A4000879597F90895990F0008550FAA0BE0E8BC
:101A5000FEEF16161706E807F907C0F01216130670
:101A6000E407F50798F0621B730B840B950B39F4B0
:101A70000A2661F0232B242B252B21F408950A2616
:101A800009F4A140A6958FEF811D811D089597F956
:101A90009F6780E870E060E008959FEF80EC089514
:101AA00000240A941616170618060906089500243D
:101AB0000A9412161306140605060895092E0394B7
:101AC000000C11F4882352F0BB0F40F4BF2B11F42B
:101AD00060FF04C06F5F7F4F8F4F9F4F089557FD8A
:101AE0009058440F551F59F05F3F71F04795880F8C
:101AF00097FB991F61F09F3F79F087950895121623
:101B000013061406551FF2CF4695F1DF08C01616CE
:101B100017061806991FF1CF86957105610508947F
:101B20000895E894BB2766277727CB0197F9089596
:101B30008ADF08F48FEF08950AD0C0CFB1DF28F014
:101B4000B6DF18F0952309F0A2CFA7CFEBCFC7DF00
:101B5000A8F39923D9F35523C9F3950F50E0551FE6
:101B6000AA27EE27FF27BB2700240894679520F4B7
:101B7000E20FF31FB41F0A1E220F331F441FAA1FB8
:101B80006695A9F7779530F4F30FB41F0A1E121E5D
:101B900008F46395330F441FAA1F221F769599F707
:101BA000879520F4B40F0A1E121E631F440FAA1F4C
:101BB000221F331F8695A9F7862F712D602D1124C2
:101BC0009F5750408AF0E1F088234AF0EE0FFF1F44
:101BD000BB1F661F771F881F91505040A9F79E3F7B
:101BE000510570F054CF9ECF5F3FECF3983EDCF38D
:101BF000869577956795B795F795E7959F5FC1F7B8
:101C0000FE2B880F911D9695879597F90895552776
:101C1000002480FF02C0060E571F660F771F611554
:101C2000710521F096958795009799F7952F802D4E
:101C3000089597FB092E07260AD077FD04D02ED0F1
:101C400006D000201AF4709561957F4F0895F6F73D
:101C5000909581959F4F0895A1E21A2EAA1BBB1B58
:101C6000FD010DC0AA1FBB1FEE1FFF1FA217B30768
:101C7000E407F50720F0A21BB30BE40BF50B661F7E
:101C8000771F881F991F1A9469F760957095809542
:101C900090959B01AC01BD01CF010895AA1BBB1B10
:101CA00051E107C0AA1FBB1FA617B70710F0A61B5C
:101CB000B70B881F991F5A95A9F780959095BC017D
:101CC000CD010895EE0FFF1F0590F491E02D0994CA
:101CD000E199FECF9FBB8EBBE09A99278DB3089503
:101CE000262FE199FECF1CBA9FBB8EBB2DBB0FB632
:101CF000F894E29AE19A0FBE01960895F894FFCF06
:101D0000234600234300424154542000564F4C5474
:101D1000004259450042415454204C4F2000455246
:101D2000524F5230202000000090400000C8420175
:101D300000020001204E203437232034322E323668
:101D40003520205720313232232032312E383233A1
:101D500020202020000605040A09080703000000CF
:101D6000002001E00100000000000020004007709A
:101D70000400000000100080000800000070073020
:101D800000E006F004B001D005D0077000F007F0C5
:101D90000500000000800680049004E0020000F0CE
:101DA0000390074007B006C007C003500790030028
:101DB000033006D0030007500270039006E003E0F2
:101DC00005800290018007300710062005B003B09F
:041DD00005E0060024
:00000001FF
